{
  "_format": "hh-sol-artifact-1",
  "contractName": "Hidratese",
  "sourceName": "contracts/Hidratese.sol",
  "abi": [
    {
      "inputs": [],
      "stateMutability": "payable",
      "type": "constructor"
    },
    {
      "anonymous": false,
      "inputs": [
        {
          "indexed": true,
          "internalType": "address",
          "name": "from",
          "type": "address"
        },
        {
          "indexed": false,
          "internalType": "uint256",
          "name": "timestamp",
          "type": "uint256"
        },
        {
          "indexed": false,
          "internalType": "string",
          "name": "message",
          "type": "string"
        }
      ],
      "name": "NewDrink",
      "type": "event"
    },
    {
      "inputs": [],
      "name": "getAllDrinks",
      "outputs": [
        {
          "components": [
            {
              "internalType": "address",
              "name": "drinker",
              "type": "address"
            },
            {
              "internalType": "string",
              "name": "message",
              "type": "string"
            },
            {
              "internalType": "uint256",
              "name": "timestamp",
              "type": "uint256"
            }
          ],
          "internalType": "struct Hidratese.Drink[]",
          "name": "",
          "type": "tuple[]"
        }
      ],
      "stateMutability": "view",
      "type": "function"
    },
    {
      "inputs": [],
      "name": "getCoposAgua",
      "outputs": [
        {
          "internalType": "uint256",
          "name": "",
          "type": "uint256"
        }
      ],
      "stateMutability": "view",
      "type": "function"
    },
    {
      "inputs": [
        {
          "internalType": "address",
          "name": "",
          "type": "address"
        }
      ],
      "name": "lastWavedAt",
      "outputs": [
        {
          "internalType": "uint256",
          "name": "",
          "type": "uint256"
        }
      ],
      "stateMutability": "view",
      "type": "function"
    },
    {
      "inputs": [
        {
          "internalType": "string",
          "name": "_message",
          "type": "string"
        }
      ],
      "name": "pegaCopo",
      "outputs": [],
      "stateMutability": "nonpayable",
      "type": "function"
    }
  ],
  "bytecode": "0x60806040526200004f6040518060400160405280601b81526020017f44696761206e616f20617320706564726173206e6f732072696e7300000000008152506200007760201b620006881760201c565b606444426200005f9190620001c4565b6200006b919062000261565b60018190555062000308565b62000117816040516024016200008e919062000184565b6040516020818303038152906040527f41304fac000000000000000000000000000000000000000000000000000000007bffffffffffffffffffffffffffffffffffffffffffffffffffffffff19166020820180517bffffffffffffffffffffffffffffffffffffffffffffffffffffffff83818316178352505050506200011a60201b60201c565b50565b60008151905060006a636f6e736f6c652e6c6f679050602083016000808483855afa5050505050565b60006200015082620001a8565b6200015c8185620001b3565b93506200016e8185602086016200022b565b6200017981620002f7565b840191505092915050565b60006020820190508181036000830152620001a0818462000143565b905092915050565b600081519050919050565b600082825260208201905092915050565b6000620001d18262000221565b9150620001de8362000221565b9250827fffffffffffffffffffffffffffffffffffffffffffffffffffffffffffffffff0382111562000216576200021562000299565b5b828201905092915050565b6000819050919050565b60005b838110156200024b5780820151818401526020810190506200022e565b838111156200025b576000848401525b50505050565b60006200026e8262000221565b91506200027b8362000221565b9250826200028e576200028d620002c8565b5b828206905092915050565b7f4e487b7100000000000000000000000000000000000000000000000000000000600052601160045260246000fd5b7f4e487b7100000000000000000000000000000000000000000000000000000000600052601260045260246000fd5b6000601f19601f8301169050919050565b61122480620003186000396000f3fe608060405234801561001057600080fd5b506004361061004b5760003560e01c806219d47c14610050578063242a89751461006e578063a42a46631461008c578063c201635f146100bc575b600080fd5b6100586100d8565b6040516100659190610eb6565b60405180910390f35b610076610123565b6040516100839190610d6d565b60405180910390f35b6100a660048036038101906100a19190610a41565b610274565b6040516100b39190610eb6565b60405180910390f35b6100d660048036038101906100d19190610a6a565b61028c565b005b600061011b6040518060400160405280601c81526020017f5065676172616d20256420636f706f7320646167756120617175692100000000815250600054610721565b600054905090565b60606002805480602002602001604051908101604052809291908181526020016000905b8282101561026b57838290600052602060002090600302016040518060600160405290816000820160009054906101000a900473ffffffffffffffffffffffffffffffffffffffff1673ffffffffffffffffffffffffffffffffffffffff1673ffffffffffffffffffffffffffffffffffffffff1681526020016001820180546101d0906110a7565b80601f01602080910402602001604051908101604052809291908181526020018280546101fc906110a7565b80156102495780601f1061021e57610100808354040283529160200191610249565b820191906000526020600020905b81548152906001019060200180831161022c57829003601f168201915b5050505050815260200160028201548152505081526020019060010190610147565b50505050905090565b60036020528060005260406000206000915090505481565b42610384600360003373ffffffffffffffffffffffffffffffffffffffff1673ffffffffffffffffffffffffffffffffffffffff168152602001908152602001600020546102da9190610fd3565b1061031a576040517f08c379a000000000000000000000000000000000000000000000000000000000815260040161031190610e76565b60405180910390fd5b42600360003373ffffffffffffffffffffffffffffffffffffffff1673ffffffffffffffffffffffffffffffffffffffff1681526020019081526020016000208190555060016000808282546103709190610fd3565b925050819055506103b76040518060400160405280601381526020017f257320626562657520652066616c6f752025730000000000000000000000000081525033836107bd565b600260405180606001604052803373ffffffffffffffffffffffffffffffffffffffff16815260200183815260200142815250908060018154018082558091505060019003906000526020600020906003020160009091909190915060008201518160000160006101000a81548173ffffffffffffffffffffffffffffffffffffffff021916908373ffffffffffffffffffffffffffffffffffffffff1602179055506020820151816001019080519060200190610476929190610921565b50604082015181600201555050606460015442446104949190610fd3565b61049e9190610fd3565b6104a891906110d9565b6001819055506104ef6040518060400160405280601681526020017f232072616e646f6d69636f2067657261646f3a20256400000000000000000000815250600154610721565b603260015411610635576105386040518060400160405280600a81526020017f25732067616e686f7521000000000000000000000000000000000000000000008152503361085c565b6000655af3107a4000905047811115610586576040517f08c379a000000000000000000000000000000000000000000000000000000000815260040161057d90610e56565b60405180910390fd5b60003373ffffffffffffffffffffffffffffffffffffffff16826040516105ac90610d58565b60006040518083038185875af1925050503d80600081146105e9576040519150601f19603f3d011682016040523d82523d6000602084013e6105ee565b606091505b5050905080610632576040517f08c379a000000000000000000000000000000000000000000000000000000000815260040161062990610e96565b60405180910390fd5b50505b3373ffffffffffffffffffffffffffffffffffffffff167fe40313a9012fd18c9eb393d3534e6203cfebc6a205328dade9fc83c947105a80428360405161067d929190610ed1565b60405180910390a250565b61071e8160405160240161069c9190610d8f565b6040516020818303038152906040527f41304fac000000000000000000000000000000000000000000000000000000007bffffffffffffffffffffffffffffffffffffffffffffffffffffffff19166020820180517bffffffffffffffffffffffffffffffffffffffffffffffffffffffff83818316178352505050506108f8565b50565b6107b98282604051602401610737929190610e26565b6040516020818303038152906040527f9710a9d0000000000000000000000000000000000000000000000000000000007bffffffffffffffffffffffffffffffffffffffffffffffffffffffff19166020820180517bffffffffffffffffffffffffffffffffffffffffffffffffffffffff83818316178352505050506108f8565b5050565b6108578383836040516024016107d593929190610de1565b6040516020818303038152906040527fe0e9ad4f000000000000000000000000000000000000000000000000000000007bffffffffffffffffffffffffffffffffffffffffffffffffffffffff19166020820180517bffffffffffffffffffffffffffffffffffffffffffffffffffffffff83818316178352505050506108f8565b505050565b6108f48282604051602401610872929190610db1565b6040516020818303038152906040527f319af333000000000000000000000000000000000000000000000000000000007bffffffffffffffffffffffffffffffffffffffffffffffffffffffff19166020820180517bffffffffffffffffffffffffffffffffffffffffffffffffffffffff83818316178352505050506108f8565b5050565b60008151905060006a636f6e736f6c652e6c6f679050602083016000808483855afa5050505050565b82805461092d906110a7565b90600052602060002090601f01602090048101928261094f5760008555610996565b82601f1061096857805160ff1916838001178555610996565b82800160010185558215610996579182015b8281111561099557825182559160200191906001019061097a565b5b5090506109a391906109a7565b5090565b5b808211156109c05760008160009055506001016109a8565b5090565b60006109d76109d284610f32565b610f01565b9050828152602081018484840111156109ef57600080fd5b6109fa848285611065565b509392505050565b600081359050610a11816111d7565b92915050565b600082601f830112610a2857600080fd5b8135610a388482602086016109c4565b91505092915050565b600060208284031215610a5357600080fd5b6000610a6184828501610a02565b91505092915050565b600060208284031215610a7c57600080fd5b600082013567ffffffffffffffff811115610a9657600080fd5b610aa284828501610a17565b91505092915050565b6000610ab78383610cea565b905092915050565b610ac881611029565b82525050565b610ad781611029565b82525050565b6000610ae882610f72565b610af28185610f95565b935083602082028501610b0485610f62565b8060005b85811015610b405784840389528151610b218582610aab565b9450610b2c83610f88565b925060208a01995050600181019050610b08565b50829750879550505050505092915050565b6000610b5d82610f7d565b610b678185610fb1565b9350610b77818560208601611074565b610b80816111c6565b840191505092915050565b6000610b9682610f7d565b610ba08185610fc2565b9350610bb0818560208601611074565b610bb9816111c6565b840191505092915050565b6000610bd1603383610fc2565b91507f54656e74616e646f207361636172206d6169732064696e686569726f2071756560008301527f206f20636f6e747261746f20706f737375692e000000000000000000000000006020830152604082019050919050565b6000610c37600a83610fc2565b91507f4573706572652031356d000000000000000000000000000000000000000000006000830152602082019050919050565b6000610c77600083610fa6565b9150600082019050919050565b6000610c91602583610fc2565b91507f46616c686f7520656d2073616361722064696e686569726f20646f20636f6e7460008301527f7261746f2e0000000000000000000000000000000000000000000000000000006020830152604082019050919050565b6000606083016000830151610d026000860182610abf565b5060208301518482036020860152610d1a8282610b52565b9150506040830151610d2f6040860182610d3a565b508091505092915050565b610d438161105b565b82525050565b610d528161105b565b82525050565b6000610d6382610c6a565b9150819050919050565b60006020820190508181036000830152610d878184610add565b905092915050565b60006020820190508181036000830152610da98184610b8b565b905092915050565b60006040820190508181036000830152610dcb8185610b8b565b9050610dda6020830184610ace565b9392505050565b60006060820190508181036000830152610dfb8186610b8b565b9050610e0a6020830185610ace565b8181036040830152610e1c8184610b8b565b9050949350505050565b60006040820190508181036000830152610e408185610b8b565b9050610e4f6020830184610d49565b9392505050565b60006020820190508181036000830152610e6f81610bc4565b9050919050565b60006020820190508181036000830152610e8f81610c2a565b9050919050565b60006020820190508181036000830152610eaf81610c84565b9050919050565b6000602082019050610ecb6000830184610d49565b92915050565b6000604082019050610ee66000830185610d49565b8181036020830152610ef88184610b8b565b90509392505050565b6000604051905081810181811067ffffffffffffffff82111715610f2857610f27611197565b5b8060405250919050565b600067ffffffffffffffff821115610f4d57610f4c611197565b5b601f19601f8301169050602081019050919050565b6000819050602082019050919050565b600081519050919050565b600081519050919050565b6000602082019050919050565b600082825260208201905092915050565b600081905092915050565b600082825260208201905092915050565b600082825260208201905092915050565b6000610fde8261105b565b9150610fe98361105b565b9250827fffffffffffffffffffffffffffffffffffffffffffffffffffffffffffffffff0382111561101e5761101d61110a565b5b828201905092915050565b60006110348261103b565b9050919050565b600073ffffffffffffffffffffffffffffffffffffffff82169050919050565b6000819050919050565b82818337600083830152505050565b60005b83811015611092578082015181840152602081019050611077565b838111156110a1576000848401525b50505050565b600060028204905060018216806110bf57607f821691505b602082108114156110d3576110d2611168565b5b50919050565b60006110e48261105b565b91506110ef8361105b565b9250826110ff576110fe611139565b5b828206905092915050565b7f4e487b7100000000000000000000000000000000000000000000000000000000600052601160045260246000fd5b7f4e487b7100000000000000000000000000000000000000000000000000000000600052601260045260246000fd5b7f4e487b7100000000000000000000000000000000000000000000000000000000600052602260045260246000fd5b7f4e487b7100000000000000000000000000000000000000000000000000000000600052604160045260246000fd5b6000601f19601f8301169050919050565b6111e081611029565b81146111eb57600080fd5b5056fea26469706673582212202aeb65b103968b5d91d67e9e52957721ef287472a741c7fc34b28aaf75b3c6f564736f6c63430008000033",
  "linkReferences": {},
  "deployedLinkReferences": {}
}